:0400000002002132A7
:03000B0002023AB4
:0100130032BA
:03001B0002029945
:10007A0075086375096F750A6D750B6D750C617579
:10008A000D6E750E64750F2075106375116F7512FC
:10009A006E75137375146F75156C75166575173A49
:0900AA0075182075190A751A0079
:0300C50002001E18
:03001E00020139A3
:1000C8003098FD859982C29822858299109902807C
:1000D800FB2285D7D7758780759850C2CCC2CD438F
:1000E8008920758BF2758DF2D28E22759850D2CCFC
:1000F800D2CD438920758BFD758DFD759850D28EB4
:100108002275D700AED75306407F00BE40F6BF0029
:10011800F3759850759D09759E83227FFF7EFF00B9
:1001280000DEFCDFF8227F1F7EFF0000DEFCDFF828
:1001380022751B00751C00751D00751E00751F00BB
:10014800752000752100752200752300752400753F
:100158002500752600752700752800752900752A61
:1001680000752B00752C00752D00752E00752F005D
:1001780075300075310075320075330075340075BF
:100188003500753600753700753800753900753AD1
:10019800007E007F00C007C006120109120221126A
:1001A8000280D006D007D2AF43A101E53B70FC75B1
:1001B8003B328E048F050CBC00010D8C068D07ACFC
:1001C800A37D00C007C006C004C005C006C00774F0
:1001D8003AC0E0740BC0E07480C0E0741BC0E074E7
:1001E80000C0E07440C0E012038CAC82E58124F6C4
:1001F800F581D006D0077D00C3ED9C50AEED241BE1
:10020800F98782C007C006C005C0041200D1D00417
:09021800D005D006D0070D80DFEF
:100B2700434F4D4D414E4420434F4E534F4C453A52
:100B3700200A005B25645D3A205345433D25640A3E
:010B470000AD
:1000B300753B00753C00753D00753E00753F00754E
:0200C3004000FB
:10022100C28CC2A9C28DE58954F04401F589758A51
:1002310016758CAED2A9D28C22C0E0C007C0D07591
:10024100D000C28CC2A9C28DE58954F04401F58960
:10025100758AEE758C7CE53B6006E53BFF14F53B4A
:10026100E53C6006E53CFF14F53CE53D6006E53DF7
:10027100FF14F53DD28CD2A9D0D0D007D0E032C244
:100281008EC2ABC28FE589540F4410F589758B3C42
:10029100758DE8D2ABD28E22C0E0C007C0D075D038
:1002A10000C28EC2ABC28FE589540F4410F5897527
:1002B1008B65758D3BE53E6006E53EFF14F53EE539
:1002C1003F6006E53FFF14F53FE5406006E540FF6E
:0E02D10014F540D28ED2ABD0D0D007D0E032A0
:06005000E478FFF6D8FD84
:10002E007900E94400601B7A00900B53780175A0AB
:10003E0000E493F2A308B8000205A0D9F4DAF27531
:02004E00A0FF11
:100056007800E84400600A790175A000E4F309D845
:10006600FC7800E84400600C7900900001E4F0A3FD
:04007600D8FCD9FADF
:1002DF00C048858148C082058105810581E5482494
:1002EF00FBF8A9480909E6F70809E6F70809E6F750
:1002FF00A848080886820886830886F0120AECFA56
:10030F00A3120AECFBA3120AECFF74012AFCE43BD4
:10031F00FD8F06A848080886820886830886F0ECB9
:10032F00120B0CA3ED120B0CA3EE120B0C8A828B8B
:10033F00838FF0A84808E6120B0C854881D048221D
:10034F0085824585834685F04775564575570075F7
:10035F00584085415985425A85435B85445C9002DC
:10036F00DF120472AE82AF83AB45AC46AD478B82D2
:10037F008C838DF0E4120B0C8E828F8322C048E5A4
:10038F0081F54824F8FF8F5CE54824FBFF8F5675F5
:10039F005700755840E54824F8F8865908865A08DA
:1003AF00865B9002DF120472AE82AF83E54824FBB6
:1003BF00F886030886040886058B828C838DF0E40B
:1003CF00120B0C8E828F83D04822AF82C04CC04D4F
:1003DF00C04E1203E68007C04AC04B8F82221581A0
:1003EF00158115810554E4B55402055522AF827469
:1003FF00302FFF24C6500B74072FFFE549600343CE
:10040F0007208F820203D9E582FFC4540FF582C003
:10041F00071203FCD007740F5FF5820203FC85827D
:10042F0077AB4FAC50AD51AE52AA537579208A07B6
:10043F00EF2FF578EE2354014578FAEB2BFBEC33D5
:10044F00FCED33FDEE33FEC3EA95774008EAC39522
:10045F0077FA430301D579D68B4F8C508D518E523D
:10046F008A532285824A85834B85564C85574D8505
:10047F00584EE4F554F555AD59AE5AAF5B8D828E9B
:10048F00838FF0120AECFC74012DF559E43EF55AF6
:10049F008F5BECFF7003020AB0BF25028003020AD4
:1004AF00A8E4F55DF55EF55FF560F561F562F5635E
:1004BF00F564F566F573F5747567FF7568FF855913
:1004CF006D855A6E855B6F856D82856E83856FF046
:1004DF00120AECF570A385826D85836E856D598543
:1004EF006E5A856F5B7425B570088570821203D9BB
:1004FF00808574D025705068E57024C6406274FF03
:10050F00B56736B5683385737785747890000A12AE
:10051F000ACF858271858372AA707E00EA2571FAEF
:10052F00EE3572FEEA24D0F573EE34FFF574E57301
:10053F0045747093755E01808E85677785687890B6
:10054F00000A120ACFAE82AB83AA707D00EA2EFE9C
:10055F00ED3BFBEE24D0F567EB34FFF5680204D6D4
:10056F00742EB5701574FFB56705B5680280030268
:10057F0004D6E4F567F5680204D6749F2570500E13
:10058F00E570248540085370DF7549018003754974
:10059F00007420B5700302063C742BB5700302067D
:1005AF0036742DB5700280797442B570030206421D
:1005BF007443B5700302064E7444B570030207D23C
:1005CF007446B570030207E97448B570030204D688
:1005DF007449B570030207D2744AB570030204D68A
:1005EF00744CB570028052744FB570030207DA7401
:1005FF0050B570030207677453B57002806274546C
:10060F00B570030204D67455B570030207DF745832
:10061F00B570030207E4745AB570030204D60207DB
:10062F00EE755D010204D6755F010204D675600197
:10063F000204D67562010204D67563010204D6E581
:10064F0062600AE55C14F9895C8706800BE55C241F
:10065F00FEFB8B5C8B0187068E821203D90207FC8F
:10066F00E55C24FDFE8E5C8E0187020987030987F6
:10067F000619198A4F8B508E518A828B838EF012F6
:10068F000AB785826D85836E74FFB56709B56806F5
:10069F00856D67856E68E55D7037C3E56D9573E5AC
:1006AF006E9574502CE573C3956DF571E574956E69
:1006BF00F572AA71AE72157174FFB571021572EAF7
:1006CF004E60087582201203D980E7857173857299
:1006DF0074AB67AE68854F828550838551F0120ADF
:1006EF00ECFA8A6B6034C3E49B74808EF063F08005
:1006FF0095F050261BBBFF011E856B82C006C00301
:10070F001203D9D003D006AA4FAC50AD510ABA008C
:10071F00010C8A4F8C508D5180BBE55D7003020731
:10072F00FCC3E56D9573E56E957440030207FCE518
:10073F0073C3956DF571E574956EF572AA71AE720E
:10074F00157174FFB571021572EA4E70030207F648
:10075F007582201203D980E4E55C24FDFE8E5C8E49
:10076F0001870209870309870619198A4F8B508E53
:10077F0051AE51BE800040047B438014BE600040E8
:10078F00047B50800BBE400040047B4980027B58A5
:10079F008B82C0031203D975823A1203D975823046
:1007AF001203D97582781203D9D003BB4902800B8B
:1007BF00BB50028006855082120416854F821204A8
:1007CF0016802A75610175660A8022756608801D7C
:1007DF0075660A80187566108013756401800E8522
:1007EF0070821203D98006857173857274E5646017
:1007FF0060E55C24FCFE8E5C8E01877309877409AB
:10080F00877509877619191985734F857450857502
:10081F0051857652754F4875500B755180854F73C2
:10082F0085507485517574012573FAE43574FBAEE8
:10083F00758A4F8B508E518573828574838575F0C1
:10084F00120AECFEFB70030204868B821203D9801E
:10085F00CCE5667003020486E562602BE55C14F953
:10086F00895C87068E027B007D007E008A4F8B504D
:10087F008D518E52E5617064AA4FFBFDFE8A4F8B3E
:10088F00508D518E528055E5636021E55C24FCFE4E
:10089F008E5C8E0187020987030987050987061970
:1008AF0019198A4F8B508D518E528030E55C24FE82
:1008BF00FE8E5C8E01870309870619EEFA3395E0E9
:1008CF00FDFE8B4F8A508D518E52E561700EAA4FEF
:1008DF00AB50FDFE8A4F8B508D518E52E5616023D8
:1008EF00E55230E71BC3E4954FFBE49550FCE495CC
:1008FF0051FDE49552FE8B4F8C508D518E528003DB
:10090F00756100756501797F7D007E0075530085E7
:10091F006682C006C005C00112042DD001D005D0DB
:10092F0006E565700BE553C4FCE7FB4CF719800235
:10093F00A7530DBD00010EE565B40100E433F56565
:10094F00E54F45504551455270C2896C8D698E6A8D
:10095F00E57345747005757301F574E55E702DE5EB
:10096F005D7029AA73AB74AC690C7E00C3EC9AEE70
:10097F009B5015758220C003C0021203D9D002D03C
:10098F00031ABAFF011B80DF8A738B74E561601154
:10099F0075822D1203D9157374FFB5730215748008
:1009AF002EE569456A6028E55F601175822B120399
:1009BF00D9157374FFB5730215748013E560600F5A
:1009CF007582201203D9157374FFB573021574E580
:1009DF005D7033AD73AE748D038E041DBDFF011EAC
:1009EF00C3E5699BE56A9C503EE55E60067B307C03
:1009FF000080047B207C008B82C006C0051203D9C7
:100A0F00D005D00680D1C3E5699573E56A9574501A
:100A1F000FE573C39569F573E574956AF574800BEB
:100A2F00E4F573F57480048D738E74A96CAD69AEA3
:100A3F006A8D028E041DBDFF011EEA4C6030E56514
:100A4F00B40100E433F565700A09E7C4540FFC8C58
:100A5F005380078704740F5CF553855382C006C01B
:100A6F0005C0011203FCD001D005D00680C3E55D9F
:100A7F007003020486AD73AE748D038E041DBDFF2B
:100A8F00011EEB4C7003020486758220C006C00560
:100A9F001203D9D005D00680E08F821203D9020449
:080AAF008685548285558322DF
:0B0B48003C4E4F20464C4F41543E00F5
:100AB700AA82AB83120AEC6003A380F8C3E5829A8B
:100AC700F582E5839BF58322E5828577F0A4C582CD
:100AD700C0F08578F0A4D0F025F0C5838577F0A421
:050AE7002583F58322C8
:0D00210075817F120B08E582600302001E4E
:100AEC0020F71430F6148883A88220F507E6A88333
:100AFC0075830022E280F7E49322E02275820022C3
:100B0C0020F71130F6138883A88220F509F6A88304
:0B0B1C007583002280FEF280F5F022BD
:00000001FF
